:1000000045C0000060C000005EC000005CC0000091
:100010005AC0000058C0000056C0000054C0000084
:1000200052C0000050C000004EC000004CC0000094
:100030004AC0000048C0000046C0000044C00000A4
:1000400042C0000040C000003EC000003CC00000B4
:100050003AC0000038C0000036C0000034C00000C4
:1000600032C0000030C000002EC000002CC00000D4
:100070002AC0000028C0000026C0000024C00000E4
:1000800022C0000020C000001EC0000011241FBEBE
:10009000CFEFD0E1DEBFCDBF11E0A0E0B1E0EEE8F0
:1000A000F1E000E00BBF02C007900D92AC30B10749
:1000B000D9F721E0ACE0B1E001C01D92AE30B2074B
:1000C000E1F75AD062C09CCF9FEF94BB87B3806F9B
:1000D00087BB95BB0895CF93DF93CDB7DEB72B9742
:1000E0000FB6F894DEBF0FBECDBF8BE0E0E0F1E0CD
:1000F000DE01119601900D928A95E1F780910C0135
:1001000090910D018130910579F01CF4892B39F023
:1001100019C08230910569F0039781F013C080E81F
:1001200088BB898585BB0EC080E488BB898585BB7B
:1001300009C080E288BB898585BB04C080E188BB9B
:10014000898585BB80910C0190910D01019683708A
:100150009078992324F401978C6F9F6F0196909368
:100160000D0180930C012B960FB6F894DEBF0FBEE5
:10017000CDBFDF91CF910895A7DFADDF8FE99FE07D
:0E0180000197F1F700C00000F8CFF894FFCF10
:0C018E00C0F9A4B0999282D880980000BB
:00000001FF
