S013000030332E464E445F544553542E7372656309
S113000045C0000060C000005EC000005CC000008D
S11300105AC0000058C0000056C0000054C0000080
S113002052C0000050C000004EC000004CC0000090
S11300304AC0000048C0000046C0000044C00000A0
S113004042C0000040C000003EC000003CC00000B0
S11300503AC0000038C0000036C0000034C00000C0
S113006032C0000030C000002EC000002CC00000D0
S11300702AC0000028C0000026C0000024C00000E0
S113008022C0000020C000001EC0000011241FBEBA
S1130090CFEFD0E1DEBFCDBF11E0A0E0B1E0EEE8EC
S11300A0F1E000E00BBF02C007900D92AA30B10747
S11300B0D9F721E0AAE0B1E001C01D92AC30B2074B
S11300C0E1F75AD062C09CCF8FEF84BB87B3806FB7
S11300D087BB15BA0895CF93DF93CDB7DEB72A97C0
S11300E00FB6F894DEBF0FBECDBF8AE0E0E0F1E0CA
S11300F0DE01119601900D928A95E1F780910A0133
S113010090910B018130910579F01CF4892B39F021
S113011019C08230910569F0039781F013C08FE70D
S113012088BB898585BB0EC08FE788BB898585BB65
S113013009C08FED88BB898585BB04C08FEE88BB61
S1130140898585BB80910A0190910B01019683708A
S11301509078992324F401978C6F9F6F0196909364
S11301600B0180930A012A960FB6F894DEBF0FBEE6
S1130170CDBFDF91CF910895A7DFADDF8FE99FE079
S11101800197F1F700C00000F8CFF894FFCF0C
S10D018E3F065B4F666D7D277F6717
S9030000FC
