S013000030332E464E445F544553542E7372656309
S113000045C0000060C000005EC000005CC000008D
S11300105AC0000058C0000056C0000054C0000080
S113002052C0000050C000004EC000004CC0000090
S11300304AC0000048C0000046C0000044C00000A0
S113004042C0000040C000003EC000003CC00000B0
S11300503AC0000038C0000036C0000034C00000C0
S113006032C0000030C000002EC000002CC00000D0
S11300702AC0000028C0000026C0000024C00000E0
S113008022C0000020C000001EC0000011241FBEBA
S1130090CFEFD0E1DEBFCDBF11E0A0E0B1E0E2ECF4
S11300A0F3E000E00BBF02C007900D92AC30B10743
S11300B0D9F721E0ACE0B1E001C01D92AA31B2074A
S11300C0E1F7BFD07CC19CCF40B350E021E030E0E9
S11300D0F90102C0EE0FFF1F8A95E2F7CF018423D6
S11300E095230097B9F0FB01E45FFE4F20812111B5
S11300F011C0FFEF2DEE82E0F15020408040E1F787
S113010000C00000FB01E45FFE4F81E0808380E0DB
S113011090E00895FB01E45FFE4F2081213091F4CB
S1130120892B99F4FB01E45FFE4F10829FEFEDEE03
S1130130F2E09150E040F040E1F700C0000081E0BF
S113014090E0089580E090E0089580E090E00895C4
S11301508FEF84BB87B3806F87BB15BA08950F9365
S11301601F93CF93DF93CDB7DEB72B970FB6F894D9
S1130170DEBF0FBECDBF8C019BE0E0E0F1E0DE010D
S1130180119601900D929A95E1F7E0911001F0918A
S11301901101E130F105A9F01CF4EF2B39F035C061
S11301A0E230F105D9F0339731F12FC08FE788BBE6
S11301B0E1E0F0E0EC0FFD1FE00FF11F808185BB53
S11301C024C08FEB88BBE1E0F0E0EC0FFD1FE60FED
S11301D0F71F90818B85892B85BB17C08FED88BB5A
S11301E0E1E0F0E0EC0FFD1FE40FF51F90818B853B
S11301F0892B85BB0AC08FEE88BBE1E0F0E0EC0FF1
S1130200FD1FE20FF31F808185BB80911001909147
S11302101101019683709078992324F401978C6FCF
S11302209F6F019690931101809310012B960FB646
S1130230F894DEBF0FBECDBFDF91CF911F910F9118
S11302400895CF93DF9300D000D01F92CDB7DEB7CF
S11302507FDF1D822D81222309F482C08091160143
S113026090911701A0911801B09119010196A11D57
S1130270B11D8093160190931701A0931801B093B8
S11302801901883E9340A105B105D8F010921601DA
S11302901092170110921801109219018091120105
S11302A090911301A0911401B09115010196A11D23
S11302B0B11D8093120190931301A0931401B09384
S11302C0150140901601509017016090180170902C
S11302D019010F2EFAE0CF2ED12CE12CF12CF02DA8
S11302E0C301B201A701960148D0CA01B901A7010F
S11302F0960143D069837A838B839C830F2EF4E623
S11303008F2E912CA12CB12CF02DC301B201A5018B
S1130310940133D0CA01B901A50194012ED02B0157
S11303203C0160911201709113018091140190912C
S11303301501A701960121D04B015C01CA01B90145
S1130340A70196011AD0DC01CB0129813A81A201CF
S1130350B40105DF8FE79EE30197F1F700C00000C9
S113036060E070E084E090E0AFDE892B09F472CFA6
S113037081E09D8198279D836DCFA1E21A2EAA1B4F
S1130380BB1BFD010DC0AA1FBB1FEE1FFF1FA21741
S1130390B307E407F50720F0A21BB30BE40BF50B3E
S11303A0661F771F881F991F1A9469F760957095C7
S11303B0809590959B01AC01BD01CF010895F894FF
S10503C0FFCF69
S10F03C23F065B4F666D7D277F6780005F
S9030000FC
