:1000000045C0000060C000005EC000005CC0000091
:100010005AC0000058C0000056C0000054C0000084
:1000200052C0000050C000004EC000004CC0000094
:100030004AC0000048C0000046C0000044C00000A4
:1000400042C0000040C000003EC000003CC00000B4
:100050003AC0000038C0000036C0000034C00000C4
:1000600032C0000030C000002EC000002CC00000D4
:100070002AC0000028C0000026C0000024C00000E4
:1000800022C0000020C000001EC0000011241FBEBE
:10009000CFEFD0E1DEBFCDBF11E0A0E0B1E0E6ECF4
:1000A000F4E000E00BBF02C007900D92AC30B10746
:1000B000D9F721E0ACE0B1E001C01D92AA31B2074E
:1000C000E1F792D1FEC19CCF40B350E021E030E097
:1000D000F90102C0EE0FFF1F8A95E2F7CF018423DA
:1000E00095230097B9F0FB01E45FFE4F20812111B9
:1000F00011C0FFEF2DEE82E0F15020408040E1F78B
:1001000000C00000FB01E45FFE4F81E0808380E0DF
:1001100090E00895FB01E45FFE4F2081213091F4CF
:10012000892B99F4FB01E45FFE4F10829FEFEDEE07
:10013000F2E09150E040F040E1F700C0000081E0C3
:1001400090E0089580E090E0089580E090E00895C8
:100150008FEF84BB87B3806F87BB15BA08958F92EA
:100160009F92AF92BF92CF92DF92EF92FF92CF9386
:10017000DF93CDB7DEB72B970FB6F894DEBF0FBE77
:10018000CDBF8BE0E0E0F1E0DE01119601900D9231
:100190008A95E1F7809110019091110181309105CC
:1001A00009F43EC01CF4892B49F0FCC08230910553
:1001B00009F472C0039709F4B2C0F4C08FE788BB9A
:1001C00060911601709117018091180190911901A9
:1001D0000F2EFAE0CF2ED12CE12CF12CF02DA7011F
:1001E00096014DD1E1E0F0E0EC0FFD1FE60FF71FA7
:1001F00090818B85892B85BB6091160170911701C9
:100200008091180190911901A701960138D1E1E080
:10021000F0E0EC0FFD1FE60FF71F808185BBC2C029
:100220008FEB88BB609116017091170180911801C6
:10023000909119010F2EF4E6CF2ED12CE12CF12C48
:10024000F02DA70196011BD1CA01B901A7019601A2
:1002500016D1E1E0F0E0EC0FFD1FE60FF71F9081F3
:100260008B85892B85BB6091160170911701809158
:10027000180190911901A701960101D1CA01B90194
:10028000A7019601FCD0E1E0F0E0EC0FFD1FE60FC6
:10029000F71F808185BB86C08FED88BB60911201FE
:1002A0007091130180911401909115010F2EFCE3C0
:1002B0008F2E912CA12CB12CF02DA5019401DFD013
:1002C0000F2EFAE0CF2ED12CE12CF12CF02DCA010B
:1002D000B901A7019601D3D0E1E0F0E0EC0FFD1FDA
:1002E000E60FF71F90818B85892B85BB60911201EA
:1002F000709113018091140190911501A501940151
:10030000BED0CA01B901A7019601B9D0E1E0F0E081
:10031000EC0FFD1FE60FF71F808185BB43C08FEEFA
:1003200088BB60911201709113018091140190912A
:1003300015010F2EF8E58F2EF2E09F2EA12CB12C87
:10034000F02DA50194019BD00F2EF6E0CF2ED12CDD
:10035000E12CF12CF02DCA01B901A70196018FD033
:10036000E1E0F0E0EC0FFD1FE60FF71F90818B85B9
:10037000892B85BB6091120170911301809114014A
:1003800090911501A50194017AD0CA01B901A70184
:10039000960175D0E1E0F0E0EC0FFD1FE60FF71FCE
:1003A000808185BB8091100190911101019683702D
:1003B0009078992324F401978C6F9F6F0196909306
:1003C0001101809310012B960FB6F894DEBF0FBE7B
:1003D000CDBFDF91CF91FF90EF90DF90CF90BF9096
:1003E000AF909F908F900895B3DEB9DE87EA91E6D3
:1003F0000197F1F700C0000080911601909117015C
:10040000A0911801B09119010196A11DB11D809311
:10041000160190931701A0931801B0931901883E1B
:100420009340A105B105D9F410921601109217015D
:1004300010921801109219018091120190911301EC
:10044000A0911401B09115010196A11DB11D8093D9
:10045000120190931301A0931401B093150160E071
:1004600070E084E090E030DE892B09F4BECF60E0DC
:1004700070E084E090E028DE892BC9F3B6CFA1E2DA
:100480001A2EAA1BBB1BFD010DC0AA1FBB1FEE1F0E
:10049000FF1FA217B307E407F50720F0A21BB30B59
:1004A000E40BF50B661F771F881F991F1A9469F7D5
:1004B00060957095809590959B01AC01BD01CF0131
:0604C0000895F894FFCF3F
:0C04C6003F065B4F666D7D277F6780005E
:00000001FF
